:020000040800F2
:100000009804002001010008CB020008C702000884
:10001000C902000809020008C50900080000000024
:10002000000000000000000000000000730700084E
:100030000B02000800000000CD0200081D080008A7
:100040001B0100081B0100081B0100081B01000820
:100050001B0100081B0100081B0100081B01000810
:100060001B0100081B0100081B0100081B01000800
:100070001B0100081B0100081B0100081B010008F0
:100080001B0100081B0100081B0100081B010008E0
:100090001B0100081B0100081B0100081B010008D0
:1000A0001B0100081B0100081B0100081B010008C0
:1000B0001B0100081B0100081B0100081B010008B0
:1000C0001B0100081B0100081B0100081B010008A0
:1000D0001B0100081B0100081B0100081B01000890
:1000E0001B0100081B0100081B010008DFF80CD0F1
:1000F00000F04AF800480047ED0C00089804002082
:100100000648804706480047FEE7FEE7FEE7FEE7B1
:10011000FEE7FEE7FEE7FEE7FEE7FEE72108000850
:10012000ED0000082DE9F05F0546002092469B4651
:1001300088460646814640241BE0284641464746FD
:10014000224600F042F853465A46C01A914110D355
:1001500011461846224600F029F82D1A67EB0108CF
:100160004F4622460120002100F020F817EB00093D
:100170004E41201EA4F10104DFDC484631462A46E8
:100180004346BDE8F09F0000064C074D06E0E068DE
:1001900040F0010394E8070098471034AC42F6D3CE
:1001A000FFF7A8FFD40E0008F40E0008202A04DB95
:1001B000203A00FA02F1002070479140C2F120037A
:1001C00020FA03F3194390407047202A04DB203AB9
:1001D00021FA02F00021704721FA02F3D040C2F167
:1001E0002002914008431946704710B507E0037894
:1001F0000C78A34201D0002010BD401C491C521EA7
:1002000092B2F4D2012010BDFEE7704701B500980C
:1002100001E0401E00900028FBD108BDF0B5CA786F
:10022000002502F00F03D20601D58A7813430A781D
:100230004FF00F0E12F0FF0F4FF001021CD00468B8
:100240000F8802FA05F63740B74211D14FEA850C04
:100250000EFA0CF724EA070703FA0CF43C43CF78B4
:10026000282F02D0482F02D002E0466100E006614C
:100270006D1C082DE4D304600C88FF2C1ED9446843
:100280005FF0000606F1080702FA07F50F882F4015
:10029000AF420FD14FEA860C0EFA0CF7BC4303FABB
:1002A0000CF73C43CF78282F00D14561CF78482FF9
:1002B00000D10561761C082EE4D34460F0BD416195
:1002C000704701617047FEE7FEE770477047000026
:1002D000044A0029916901D0014300E08143916102
:1002E000704700000010024030B51F494A6812F004
:1002F0000C031E4A03D0042B01D0082B21D002602E
:100300004A680F231A4C03EA1212A35C0268DA400F
:1003100042604B68072505EA1323E35C22FA03F3E6
:1003200083604B6805EAD323E35CDA40C260496826
:10033000032303EA9131231F595CB2FBF1F1016100
:1003400030BD4A684B6802F470124FF0020413F497
:10035000803F04EB924202D04B689B0301D5054BD2
:1003600000E0024B5A43CAE70010024000127A0034
:100370004800002000093D000029018802D041F01A
:10038000400101E021F04001018070472DE9F0417A
:10039000124F0D460646144610213846FFF78FFFD0
:1003A000032000F06BF9C5F3074000F067F9C5F3CF
:1003B000072000F063F9E8B200F060F904E0FF20E4
:1003C00000F05CF906F8010B641EA4B2F7D23846BF
:1003D000BDE8F0411021FFF774BF000000080140A4
:1003E0002DE9F04707460E4611F0FF00C0F100016D
:1003F000CDB24FEA122402F0FF094FF4807A13D0F5
:10040000F0B24042C0B206EB00080CB3501B80B201
:10041000040A00F0FF092A463146384600F09AF8EF
:100420003D44464657462AE06CB15546641EE4B248
:100430000CD32A463146384600F08CF806F5807613
:1004400007F58077F2E73146384621E04A46FAE779
:10045000A945F8D9A9EB0500C4B22A463146384669
:1004600000F078F841467819224611E03A463146C4
:10047000284600F06FF805F5807506F58076641E55
:10048000E4B2F3D2B9F1000006D002463146284664
:10049000BDE8F04700F05EB8BDE8F08710B586B063
:1004A00001212420FFF714FF01210803FFF710FFAB
:1004B0002020ADF8140003208DF816001820234CDE
:1004C0008DF8170005A92046FFF7A8FE4020ADF8DB
:1004D000140005A92046FFF7A1FE8020ADF8140006
:1004E00005A92046FFF79AFE1021ADF814108DF8EB
:1004F000171005A92046FFF791FE10212046FFF7AF
:10050000E0FE0020ADF800004FF48271ADF802105B
:10051000ADF804000221ADF806100121ADF8081075
:100520004902ADF80A100821ADF80C10ADF80E0024
:100530000720074CADF810006946204600F0FDF892
:1005400001212046FFF718FF06B010BD000801404A
:10055000003001402DE9F04114460D46064600F0FA
:10056000BDF8134F10213846FFF7A9FE022000F016
:1005700085F8C5F3074000F081F8C5F3072000F0C7
:100580007DF8E8B200F07AF8B4F5807F04D9FF2452
:10059000307800F073F8761C641EA4B2F8D21021F3
:1005A0003846FFF78EFEBDE8F04100F081B800004C
:1005B0000008014070B50D4D10212846FFF77FFE61
:1005C000AB2000F05BF8FF2000F058F8FF2000F0AF
:1005D00055F8FF2000F052F8FF2000F04FF80446D5
:1005E00010212846FFF76DFE204670BD000801402F
:1005F0002DE9F0410E4E10213046FFF760FE9F209E
:1006000000F03CF8FF2000F039F80546FF2000F02C
:1006100035F80446FF2000F031F807461021304637
:10062000FFF74FFE280440EA04203843BDE8F0817C
:100630000008014070B5044600F050F800F038F8AA
:100640000D4D10212846FFF73AFE202000F016F845
:10065000C4F3074000F012F8C4F3072000F00EF8CE
:10066000E0B200F00BF810212846FFF72AFEBDE8A3
:10067000704000F01DB800000008014070B50B4C40
:1006800005460221204600F04DF80028F9D0294601
:10069000204600F050F80121204600F043F80028E1
:1006A000F9D0204600F045F8C0B270BD00300140DE
:1006B00010B5094C10212046FFF701FE0520FFF779
:1006C000DDFFFF20FFF7DAFFC007FAD12046BDE8C3
:1006D00010401021FFF7F5BD0008014010B5074C90
:1006E00010212046FFF7EBFD0620FFF7C7FF20464D
:1006F000BDE810401021FFF7E4BD000000080140F4
:1007000010B5074C10212046FFF7D9FDB920FFF79F
:10071000B5FF2046BDE810401021FFF7D2BD000014
:10072000000801400246002012890A4200D0012040
:100730007047808970478181704730B502884C8846
:1007400002F441530A88CD8822438C882C432243EB
:100750000C8922434C8922438C892243CC89224331
:100760001A430280828B22F400628283098A01820A
:1007700030BD70470CB500212648019100910268F8
:1007800042F4803202604FF4A063026802F4003247
:100790000092019A521C0192009A12B9019A9A424F
:1007A000F3D10268920333D5012100911A490A68F6
:1007B00042F010020A600A6822F003020A600A6826
:1007C00042F002020A60416841604168416041684C
:1007D00041F480614160416821F47C1141604168CD
:1007E00041F4E8114160016841F0807101600168E5
:1007F0008901FCD5416821F003014160416841F065
:10080000020141604168C1F381010229FAD10CBDA6
:1008100000910CBD00100240002002407047000013
:100820000F4810B5016841F00101016041680D4AAF
:100830001140416001680C4A11400160016821F4D7
:1008400080210160416821F4FE0141604FF41F01E5
:100850008160FFF78FFF05494FF00060086010BD11
:10086000001002400000FFF8FFFFF6FE08ED00E078
:1008700010B586B0012144F20400FFF729FD4FF4C2
:100880000070ADF8100018208DF813000320154CEF
:100890008DF8120004A92046FFF7C0FC2015ADF822
:1008A000100004208DF8130004A92046FFF7B6FCC1
:1008B0004FF4E13000900020ADF80400ADF80600E0
:1008C000ADF80800ADF80C000C20074CADF80A009C
:1008D0006946204600F01CF80121204600F006F889
:1008E00006B010BD00080140003801400029818990
:1008F00002D041F4005101E021F4005181817047A0
:100900000246002012880A4200D0012070470000F1
:1009100030B50446008A85B00D464CF6FF7108409C
:10092000E98801432182A1894EF6F3100140A8888D
:100930002A8910436A890A431043A081A08A4FF68E
:10094000FF410840A9890143A1826846FFF7CCFC1A
:100950001948844201D1039800E00298A189090452
:1009600000EBC00101EB0010296801D5490000E04F
:100970008900B0FBF1F06422B0FBF2F109010B0930
:100980006FF018056B4300EB8300A3891D044FF043
:10099000320306D503EBC000B0FBF2F000F0070015
:1009A00005E003EB0010B0FBF2F000F00F0008438D
:1009B000208105B030BD000000380140C1F30801BE
:1009C00081807047FEE700000FB4054B10B503A906
:1009D000044A029800F018F810BC5DF814FB0000FF
:1009E000C90C00085800002002E008C8121F08C106
:1009F000002AFAD170477047002001E001C1121FA0
:100A0000002AFBD1704700002DE9FF4F8DB09B46B7
:100A10000F460446002606E025280BD05A460F99BB
:100A20009047641C761C20780028F5D111B0304620
:100A3000BDE8F08F0025A8460122984900E0054353
:100A400014F8013F203B02FA03F00842F7D1207866
:100A50002E2817D114F8010F45F004052A280ED0CE
:100A60006FF02F022078A0F1300109290AD808EB95
:100A7000880102EB410100EB0108641CF2E757F822
:100A8000048B641C20786C280DD004DC4C2812D018
:100A90006A2811D104E074280DD07A280CD10AE01C
:100AA00045F4001507E0617845F48015814202D1D4
:100AB000641C05F58015641C2278692A45D008DC81
:100AC000002AB3D0582A69D0632A10D0642A08D1EA
:100AD0003BE0702A67D0732A13D0752A5CD0782A3D
:100AE0005CD010465A460F999047761CD3E017F811
:100AF000040B8DF8000000208DF80100E94601206C
:100B000003E057F8049B4FF0FF3069074FF00005F2
:100B100001D40AE06D1C45450DDA8542FADB19F86F
:100B200005100029F6D106E06D1C8542FCDB19F8A2
:100B300005100029F8D12E4404E019F8010B5A469B
:100B40000F9990476D1EF8D2A5E00A200021CDE94B
:100B50000801C5F3025002280DD001CFC117031EB2
:100B600071F100030DDA4FF0000CD0EB0C006CEBD0
:100B700001012D2308E0FF1D27F00707F7E8020118
:100B8000EDE72B0504D52B238DF8283001233BE01E
:100B9000EB0739D02023F7E70A2000E010200021DE
:100BA000CDE9080107E01020002145F00405CDE95A
:100BB00008014FF00808C5F3025002280FD001CFFA
:100BC00000214FF0000A2B071FD5702A0DD0DDE958
:100BD00008C38CF0100C5CEA030C0CD015E0FF1D70
:100BE00027F00707F7E80201EBE740228DF82820FD
:100BF0004FF0010A0BE050EA010306D030238DF8D4
:100C000028308DF8292002239A46582A04D024A29D
:100C10000DF120090B9209E026A2F9E7DDE908238E
:100C2000FFF780FA0B9B9B5C09F8013D50EA01023B
:100C3000F4D1ADEB090020300890680701D44FF0E3
:100C400001080899884502DDA8EB010000E00020BA
:100C50008046002506E00AA85A46405D0F99904755
:100C60006D1C761C5545F6DB04E030205A460F9982
:100C70009047761CB8F10001A8F10108F5DC05E009
:100C800019F8010B5A460F999047761C0899481E8F
:100C900008900029F4DC641CC5E600000928010066
:100CA00030313233343536373839616263646566E2
:100CB00000000000303132333435363738394142A4
:100CC000434445460000000070B5074D0446C1B2DC
:100CD0002846FFF773FE80212846FFF711FE002803
:100CE000F9D0204670BD000000380140FFF7C0FD7C
:100CF00023A0FFF769FEFFF7D1FBFFF75BFC2B4C4E
:100D00006060C820FFF782FAFFF772FCA06062689B
:100D1000A16827A0FFF758FEA068334988422CD16C
:100D200032A0FFF751FE0020FFF784FC372200219C
:100D300004F10C00FFF754FB04F10C0136A0FFF79F
:100D400043FE372200213C48FFF720FB04F10C0151
:100D50003AA0FFF739FE3722374904F10C00FFF7BC
:100D600044FA20702078012805D03CA0FFF72CFE23
:100D7000FFF7C6FCFEE744A0F8E74FA0F6E7000047
:100D80000D0A2054686973206973206120324D2058
:100D900073657269616C20666C61736820285732D4
:100DA00035582E2E29200D0A0000000000000020DA
:100DB0000D0A20466C6173684944206973203078BD
:100DC00025582C20204D616E7566616374757265BF
:100DD0007220446576696365204944206973203038
:100DE0007825580D0A0000001640E0000D0A204446
:100DF000657465637465642057696E626F6E642004
:100E000073657269616C20666C6173682057323556
:100E100058333220210D0A000D0A205468652064E1
:100E2000617461207772697474656E20697320251E
:100E300073200D09000000005C0000200D0A205402
:100E4000686520646174612072656164206F7574E7
:100E5000206973202573200D0A0000000D0A20323E
:100E60004D2073657269616C20666C61736820281F
:100E7000573235583136292074657374206661699C
:100E80006C6564210A0D00000D0A20324D20736547
:100E90007269616C20666C6173682028573235581E
:100EA00033322920746573742073756363656564D8
:100EB0006564210A0D0000000D0A2043616E27744D
:100EC0002067657420573235583136204944210A4D
:100ED0000D000000F40E0008000000205C0000007F
:100EE000E8090008500F00085C0000203C040000E6
:100EF000F8090008000000000000000000000000E9
:100F0000200D0A202044616F20547579656E204DB4
:100F100043414C20766F20646F692073657276655B
:100F2000722052564320687474703A2F2F676F6F87
:100F3000676C652E636F6D000204060800000000F8
:100F4000010203040102030406070809000000006F
:04000005080000ED02
:00000001FF
